S01B000041546D65676136344D315F4144435F746573742E73726563AC
S11300000C94BF000C94DC000C94DC000C94DC0019
S11300100C94DC000C94DC000C94DC000C94DC00EC
S11300200C94DC000C94DC000C94DC000C94DC00DC
S11300300C94DC000C94DC000C94DC000C94DC00CC
S11300400C94DC000C94DC000C94DC000C94DC00BC
S11300500C94DC000C94DC000C94DC000C94DC00AC
S11300600C94DC000C94DC000C94DC000C94DC009C
S11300700C94DC000C94DC000C94DC006E616E00CB
S1130080696E660000407A10F35A00A0724E180997
S11300900010A5D4E80000E87648170000E40B54EB
S11300A0020000CA9A3B000000E1F50500008096BA
S11300B09800000040420F000000A08601000000EC
S11300C0102700000000E8030000000064000000A6
S11300D000000A00000000000100000000002C766F
S11300E0D888DC674F0823DFC1DFAE59E1B1B7968A
S11300F0E5E3E453C63AE651997696E8E6C28426E7
S1130100EB898C9B62ED407C6FFCEFBC9C9F40F2C2
S1130110BAA56FA5F490055A2AF75C936B6CF9673E
S11301206DC11BFCE0E40D47FEF520E6B500D0ED03
S1130130902E0300943577050080841E080000206B
S11301404E0A000000C80C333333330F986E128309
S11301501141EF8D2114893BE65516CFFEE6DB18DD
S1130160D1844B381BF77C1D901DA4BBE4242032A2
S113017084725E228100C9F124ECA1E53D2711249B
S11301801FBECFEFD0E1DEBFCDBF11E0A0E0B1E0F4
S1130190EAE8F5E102C005900D92A237B107D9F75C
S11301A011E0A2E7B1E001C01D92A738B107E1F761
S11301B00E94F7020C94C30A0C940000823049F1A7
S11301C0833030F4882351F0813009F046C012C0E6
S11301D0833069F1843009F040C036C0ECE7F0E0C8
S11301E080811082EBE7F0E0808110828081806260
S11301F080830895ECE7F0E0808110828081806440
S11302008083EBE7F0E080811082808180628083CC
S11302100895ECE7F0E0808110828081806480831F
S1130220EBE7F0E080811082808110820895ECE792
S1130230F0E08081806C8083EBE7F0E080811082C5
S11302408081806280830895ECE7F0E08081806C97
S11302508083EBE7F0E0808110820895833019F108
S1130260843028F4813079F08230A8F407C08530D6
S113027051F1853000F1863099F52DC0EAE7F0E0C0
S1130280808110822DC0EAE7F0E0808110828081B5
S11302908260808325C0EAE7F0E08081108280815B
S11302A0816080831DC0EAE7F0E080811082808154
S11302B08460808315C0EAE7F0E080811082808149
S11302C0816080830DC0EAE7F0E080811082808144
S11302D08160808305C0EAE7F0E0808181608083EB
S11302E0EAE7F0E080818068808380818064808395
S11302F0808186FDFDCF80917800909179000895EA
S1130300ECE7F0E090818F71907E892B8083EAE79F
S1130310F0E0808180648083808186FDFDCF209120
S1130320780030917900822F932F0895982F8F3081
S1130330A9F1803109F45FC08E3019F020E030E07B
S1130340A7C0E5E7F0E0808180688083613071F0C8
S1130350613030F0623099F0633009F077C018C032
S1130360E5E7F0E080818F7C808370C0E5E7F0E012
S113037080818F7D808380818061808367C0E5E791
S1130380F0E080818F7E80838081806280835EC084
S1130390E5E7F0E080818063808358C0E6E7F0E021
S11303A0808180688083613071F0613030F0623028
S11303B099F0633009F04AC018C0E6E7F0E08081A4
S11303C08F7C808343C0E6E7F0E080818F7D80836B
S11303D08081806180833AC0E6E7F0E080818F7E8F
S11303E0808380818062808331C0E6E7F0E0808191
S11303F0806380832BC0E7E7F0E08081806880839E
S1130400613069F0613028F0623091F06330F1F4CA
S113041018C0E7E7F0E080818F7C808317C0E7E7AE
S1130420F0E080818F7D80838081806180830EC035
S1130430E7E7F0E080818F7E808380818062808323
S113044005C0E7E7F0E0808180638083ECE7F0E0BB
S113045080819F71807E982B9083EAE7F0E0808111
S113046080648083808186FDFDCF809178009091A7
S113047079008050924040F080917800909179000A
S11304809C012F5F334004C02091780030917900A3
S1130490822F932F089580917C008295869586956E
S11304A08370813021F0833051F080E00895809191
S11304B07B0085FD02C082E0089581E0089580916B
S11304C07B0085FD02C084E0089583E00895FF92D7
S11304D00F931F93DF93CF930F92CDB7DEB70E9494
S11304E04B02F82E84E00E94DE00ECE7F0E080810D
S11304F0807E8B608083198289818F3F31F089816E
S11305008F5F898389818F3FD1F720E030E040E01D
S113051050E060E0EAE7F0E008E710E08081806402
S11305208083808186FDFDCFD8018D919C91A0E0D0
S1130530B0E0280F391F4A1F5B1F6F5F643671F7E5
S113054000917201112707FD109508511140CA014D
S1130550B90124E630E040E050E00E94A908020F0F
S1130560131F8F2D0E94DE00802F0F90CF91DF91FB
S11305701F910F91FF900895809372010895E0E90F
S1130580F0E080818B7F8083808183608083089505
S11305908093910093709093920008952BE731E03B
S11305A0F90188E194E08193919383E294E091834B
S11305B0808383E08093760128503040E1E8F1E0C5
S11305C0219331933183208388E00E94F50380E0F6
S11305D091E00E94300A82E00E94DE0085E00E94E1
S11305E02E018AE00E94BC020E94BF0208952F924D
S11305F03F924F925F926F927F928F929F92AF92AF
S1130600BF92CF92DF92EF92FF920F931F93CF93FB
S1130610DF930E94CE02EE24FF240F2EFBE1AF2EC7
S1130620F1E0BF2EF02D0F2EF3E7CF2EF1E0DF2EF9
S1130630F02D0F2EF6E28F2EF1E09F2EF02D0F2ECF
S1130640F4E36F2EF1E07F2EF02D0F2EF3E44F2E06
S1130650F1E05F2EF02D0F2EFAE52F2EF1E03F2E64
S1130660F02DC8ECD0E0C5010E94300A8CE00E9455
S113067080012DB73EB7285030400FB6F8943EBFE6
S11306800FBE2DBF0DB71EB70F5F1F4FF801D182EC
S1130690C08293828282A0E0B0E0BC01CD010E94BE
S11306A0310420E030E040EA50E40E946E0420E08F
S11306B030E040E85AE30E946E04F80164837583D5
S11306C0868397830E94F0092DB73EB7285F3F4F7A
S11306D00FB6F8943EBF0FBE2DBF0E94670200D034
S11306E000D000D0EDB7FEB73196D182C0827382BC
S11306F06282992787FD9095958384830E94F009EF
S11307008DB79EB706960FB6F8949EBF0FBE8DBFE9
S11307108EE060E00E949601EDB7FEB738970FB601
S1130720F894FEBF0FBEEDBF0DB71EB70F5F1F4F8E
S1130730F801D182C08253824282AA2797FDA095F4
S1130740BA2FBC01CD010E94330420E030E040E028
S11307505BE30E946E04F801648375838683978348
S11307600E94F00900D00DB71EB70F5F1F4FF801AC
S1130770D182C08233822282F582E482B70180E092
S113078090E00E94310420E030E040EA50E40E940E
S11307906E0420E030E040E85AE30E946E04F80161
S11307A066837783808791870E94F0092DB73EB7CF
S11307B0265F3F4F0FB6F8943EBF0FBE2DBFC70153
S11307C00E94C8020894E11CF11C30E0E31634E0F6
S11307D0F30610F0EE24FF2420E137E2CE01019766
S11307E0F1F721503040D1F73ECFECECF0E090E847
S11307F0908390819860908390E09093CE00809352
S1130800CD00E9ECF0E0808184FDFDCFE8ECF0E080
S113081088E08083808187608083EBE2F0E08081E0
S113082080618083EAECF0E08081836080830895B6
S1130830982FE9ECF0E0808184FDFDCF9093D20005
S113084080E090E00895E9ECF0E0808184FDFDCF44
S1130850E9ECF0E0808180FFFDCF8091D20090E050
S11308600895E89409C097FB3EF49095809570959F
S113087061957F4F8F4F9F4F9923A9F0F92F96E9E8
S1130880BB279395F695879577956795B795F1115D
S1130890F8CFFAF4BB0F11F460FF1BC06F5F7F4FFA
S11308A08F4F9F4F16C0882311F096E911C077230C
S11308B021F09EE8872F762F05C0662371F096E815
S11308C0862F70E060E02AF09A95660F771F881FE4
S11308D0DAF7880F9695879597F908950BD078C025
S11308E069D028F06ED018F0952309F05AC05FC083
S11308F01124A2C07ED0A0F3959FD1F3950F50E0B0
S1130900551F629FF001729FBB27F00DB11D639FBD
S1130910AA27F00DB11DAA1F649F6627B00DA11D63
S1130920661F829F2227B00DA11D621F739FB00D09
S1130930A11D621F839FA00D611D221F749F332779
S1130940A00D611D231F849F600D211D822F762F12
S11309506A2F11249F5750408AF0E1F088234AF00F
S1130960EE0FFF1FBB1F661F771F881F915050405B
S1130970A9F79E3F510570F014C05EC05F3FECF3D1
S1130980983EDCF3869577956795B795F795E79547
S11309909F5FC1F7FE2B880F911D9695879597F958
S11309A0089597F99F6780E870E060E008959FEFED
S11309B080EC089500240A941616170618060906F2
S11309C0089500240A9412161306140605060895C1
S11309D0092E0394000C11F4882352F0BB0F40F449
S11309E0BF2B11F460FF04C06F5F7F4F8F4F9F4F89
S11309F0089557FD9058440F551F59F05F3F71F00B
S1130A004795880F97FB991F61F09F3F79F0879571
S1130A100895121613061406551FF2CF4695F1DFFA
S1130A2008C0161617061806991FF1CF869571058A
S1130A30610508940895E894BB2766277727CB01BE
S1130A4097F90895A1E1B0E0E8E2F5E00C94CB0851
S1130A503C017F876E876A01FC01178216828381BD
S1130A6081FD03C06FEF7FEF6FC39E012F5F3F4F88
S1130A70398B288BF3012381EE85FF8523FD859136
S1130A8023FF8191FF87EE87882309F45AC38532B7
S1130A9051F4EE85FF8523FD859123FF8191FF8726
S1130AA0EE87853229F490E0B3010E94040AE2CF74
S1130AB0982F10E0882499241032B0F49B3269F006
S1130AC09C3228F4903251F0933271F40BC09D3271
S1130AD039F0903349F4116028C01260146025C0C5
S1130AE0186023C0106121C017FD2AC0892F8053CC
S1130AF08A3078F416FF06C0FAE09F9E902C1124E9
S1130B00980E13C03AE0839E802C1124880E106244
S1130B100CC09E3221F416FD14C3106406C09C362A
S1130B2011F4106802C0983659F4EE85FF8523FD50
S1130B30959123FF9191FF87EE87992309F0BCCF0C
S1130B40892F8554833020F4812F8061905E07C003
S1130B50892F8556833008F09FC1812F8F7E86FDB3
S1130B6002C076E0972E6FE3F62EF822953619F43C
S1130B70F0E4FF2A07C0963619F420E8F22A02C0EE
S1130B8091109A94F7FE0AC03BE3391518F45CE31C
S1130B90B52E02C0B92CB39427E009C047E049152B
S1130BA020F4BB2447E0942EF7CF292DBB24C601A3
S1130BB004969D878C87F60160817181828193817F
S1130BC0AE014F5F5F4F0B2D0E9402096C0109813A
S1130BD0202E332400FF04C003FD02C01DE209C01F
S1130BE0F1FE02C01BE205C0F2FC02C010E001C02D
S1130BF010E2C1018C709070892BB9F1112311F4AA
S1130C0083E001C084E0881510F088240AC0881AA3
S1130C10F3FC07C080E290E0B3010E94040A8A94C6
S1130C20C9F7112329F0812F90E0B3010E94040A2F
S1130C3023FE03C00CE710E00EC000E810E00BC078
S1130C40E114F10409F0805290E0B3010E94040A17
S1130C500F5F1F4F05C0EF2CFF24F0E1EF22FF24AC
S1130C60F8018491882361F714C1F7FE12C0BC0C0B
S1130C7024FE04C08A81813309F4BA941B141CF045
S1130C80BB24B3942DC0F8E0FB1550F538E0B32E27
S1130C9027C0F6FC25C0892D90E08C159D054CF0ED
S1130CA02CEFC2162FEFD20624F030E8F32A01C04D
S1130CB09A94992049F0E2E0F0E0EC0FFD1FE90D71
S1130CC0F11D80818033A1F3F7FE0AC0B92CB394DF
S1130CD0892D90E0C816D90614F0992401C09C18F7
S1130CE0F7FC03C025E030E009C01C141D041CF00F
S1130CF021E030E003C096012F5F3F4F112311F034
S1130D002F5F3F4F992029F0892D90E00196280FFD
S1130D10391F882D90E02817390714F0882401C062
S1130D20821A4F2C5524C20189709070892B39F096
S1130D3008C080E290E0B3010E94040A8A948820EB
S1130D40C1F7112329F0812F90E0B3010E94040A16
S1130D5043FE07C008C080E390E0B3010E94040A88
S1130D608A948820C1F7F7FE46C08601D7FE02C0E8
S1130D7000E010E076010894E11CF11CE01AF10A8D
S1130D8041E050E04C0F5D1FE40EF51E26014B18A8
S1130D905108892D90E0AA24BB24A81AB90A5FEF50
S1130DA00F3F150729F48EE290E0B3010E94040A74
S1130DB0C016D10634F0401651061CF4F7018081A8
S1130DC001C080E3015010400894E11CF11C0A1595
S1130DD01B052CF090E0B3010E94040AE0CF0C152F
S1130DE01D0539F49A81963318F4953311F424FED1
S1130DF081E390E04BC08A81813309F00F7E90E05B
S1130E00B3010E94040A9920A1F08EE290E0B3019C
S1130E100E94040A12E0E1E0F0E0EC0FFD1FE10F94
S1130E20F11D1F5F808190E0B3010E94040A9A942F
S1130E3091F744FC03C085E690E002C085E490E0AD
S1130E40B3010E94040AD7FC05C0C114D10441F4C3
S1130E5004FF06C0D094C194D108D3948DE201C09C
S1130E608BE290E0B3010E94040A80E305C08F5F27
S1130E7026EF3FEFC20ED31E3AE0C316D104BCF7EF
S1130E8090E0B3010E94040AC601C096B3010E9417
S1130E90040ACC84DD8452C1933631F0933799F03F
S1130EA0933509F059C023C0F601808189835E011E
S1130EB00894A11CB11C22E030E0C20ED31E21E034
S1130EC0E22EF12C12C0F601A080B18016FD03C001
S1130ED06FEF7FEF02C0692D70E022E030E0C20EB8
S1130EE0D31EC5010E94E5097C011F7713C0F601DA
S1130EF0A080B18016FD03C06FEF7FEF02C0692DA3
S1130F0070E022E030E0C20ED31EC5010E94DA096F
S1130F107C01106813FF07C01BC080E290E0B3019E
S1130F200E94040A8A94882D90E0E816F906A8F332
S1130F300FC0F50117FD859117FF81915F0190E0C6
S1130F40B3010E94040A81108A940894E108F1080C
S1130F50E114F10471F7F2C0943611F0993689F571
S1130F6017FF08C0F601208131814281538184E05A
S1130F7090E00AC0F601808191819C01442737FDED
S1130F804095542F82E090E0C80ED91E9FE6F92EBA
S1130F90F12257FF09C050954095309521953F4F58
S1130FA04F4F5F4F90E8F92ACA01B901AE014F5F74
S1130FB05F4F2AE030E00E94650AE82EE889EE1AC5
S1130FC041C0953721F41F7E2AE030E01CC0197F10
S1130FD09F3661F0903720F4983509F0B2C00FC005
S1130FE0903739F0983709F0ACC004C028E030E0FD
S1130FF00AC0106114FD146020E130E004C014FD47
S1131000166020E132E017FF08C0F60160817181AB
S11310108281938144E050E008C0F601808191818F
S1131020BC0180E090E042E050E0C40ED51EAE0169
S11310304F5F5F4F0E94650AE82E5889E51A8FE7D3
S1131040F82EF122F6FE0BC08EEFF822E91438F4E4
S1131050F4FE07C0F2FC05C09FEEF92202C01E2D6B
S113106001C0192DF4FE0DC0FE01EE0DF11D8081AD
S1131070803319F4E9EEFE2208C01F5FF2FE05C0BA
S113108003C08F2D867809F01F5F0F2DF3FC14C069
S1131090F0FE0FC0181510F09E2C0BC09E2C980C5F
S11310A0911A182D06C080E290E0B3010E94040A50
S11310B01F5F1815C0F304C0181510F4811A01C07D
S11310C0882404FF0FC080E390E0B3010E94040A67
S11310D002FF1DC001FD03C088E790E00EC088E553
S11310E090E00BC0802F867891F001FF02C08BE264
S11310F001C080E2F7FC8DE290E0B3010E94040A93
S113110006C080E390E0B3010E94040A9A94E914B3
S1131110C0F3EA94E1E0F0E0EC0FFD1FEE0DF11DE9
S1131120808190E0B3010E94040AEE2091F706C08A
S113113080E290E0B3010E94040A8A948820C1F7F7
S113114099CCF30166817781CB016196E2E10C943D
S1131150E708A1E21A2EAA1BBB1BFD010DC0AA1FA2
S1131160BB1FEE1FFF1FA217B307E407F50720F00C
S1131170A21BB30BE40BF50B661F771F881F991F87
S11311801A9469F760957095809590959B01AC01D0
S1131190BD01CF0108952F923F924F925F926F92BB
S11311A07F928F929F92AF92BF92CF92DF92EF92F3
S11311B0FF920F931F93CF93DF93CDB7DEB7CA1B74
S11311C0DB0B0FB6F894DEBF0FBECDBF09942A889F
S11311D0398848885F846E847D848C849B84AA8447
S11311E0B984C884DF80EE80FD800C811B81AA81D4
S11311F0B981CE0FD11D0FB6F894DEBF0FBECDBF9F
S1131200ED010895283008F027E03327DA01990F1B
S1131210311D87FD916000966105710539F43260D6
S11312202E5F3D9330E32A95E1F708959F3F30F018
S113123080387105610509F03C5F3C5F3D93913056
S113124008F08068911DDF93CF931F930F93FF9253
S1131250EF92192F987F9695E92F96959695E90F19
S1131260FF27E252FF4F99273327EE24FF24A701DB
S1131270E70105900894079428F4360FE71EF81E3A
S1131280491F511D660F771F881F991F0694A1F7E8
S11312900590079428F4E70EF81E491F561FC11D38
S11312A0770F881F991F661F0694A1F7059007946E
S11312B028F4F80E491F561FC71FD11D880F991F08
S11312C0661F771F0694A1F70590079420F4490F31
S11312D0561FC71FD81F990F661F771F881F0694B4
S11312E0A9F784911095177041F0D695C795579535
S11312F04795F794E7941A95C1F7E4E8F0E0689409
S11313001590159135916591959105907FE27395AE
S1131310E118F10A430B560BC90BD009C0F7E10CD5
S1131320F11E431F561FC91FD01D7EF4703311F4E4
S11313308A95E6CFE894015030F0080F0AF40027AC
S1131340021708F4202F2395022F7A3328F079E32B
S11313507D932A95E9F710C07D932A9589F6069422
S113136097956795379517951794E118F10A430BEC
S1131370560BC90BD00998F023957E9173957A3357
S113138008F070E37C932013B8F77E9170617D932D
S113139030F0839571E37D9370E32A95E1F711248E
S11313A0EF90FF900F911F91CF91DF91992787FDC7
S11313B090950895FC010590615070400110D8F794
S11313C0809590958E0F9F1F0895FC016150704089
S11313D001900110D8F7809590958E0F9F1F089566
S11313E0A0E0B0E0E6EFF9E00C94DB089E01275F93
S11313F03F4F8D819E816F817885A9010E942205CE
S11314002096E2E00C94F7080F931F93CF93DF9399
S11314108C01EB018B8181FF1BC082FF0DC02E81EB
S11314203F818C819D812817390764F4E881F98113
S11314300193F983E88306C0E885F985802F09952F
S1131440892B31F48E819F8101969F838E8302C004
S11314500FEF1FEFC801DF91CF911F910F910895F6
S11314600F931F93CF93DF938C01E0918301F0914D
S11314708401838181FF21C0C0E0D0E00DC0E091F0
S11314808301F091840120853185BF01F90109951B
S1131490892B11F0CFEFDFEFF80181918F018823C1
S11314A071F7E0918301F0918401208531858AE010
S11314B0BF01F9010995892B11F0CFEFDFEFCE01C0
S11314C0DF91CF911F910F910895FA01AA27283037
S11314D051F1203181F1E8946F936E7F6E5F7F4FFD
S11314E08F4F9F4FAF4FB1E03ED0B4E03CD0670F79
S11314F0781F891F9A1FA11D680F791F8A1F911DCC
S1131500A11D6A0F711D811D911DA11D20D009F41B
S113151068943F912AE0269F11243019305D31935D
S1131520DEF6CF010895462F4770405D4193B3E046
S11315300FD0C9F7F6CF462F4F70405D4A3318F0ED
S1131540495D31FD4052419302D0A9F7EACFB4E09E
S1131550A6959795879577956795BA95C9F7009756
S11315606105710508959B01AC010A2E06945795F7
S1131570479537952795BA95C9F7620F731F841F4E
S10D1580951FA01D0895F894FFCFF5
S113158A0A0A0A5374617274696E672041444320DB
S113159A6578616D706C652E2E2E000A4E65772073
S11315AA646174613A005643432F343D20252E3436
S11315BA66560A0054656D703D202564206465678B
S11315CA430A006164635F646966665F76616C7589
S11315DA653D20252E3466560A006461635F766190
S11315EA6C75653D2025642028252E346656290A03
S10515FA0000EB
S9030000FC
